:1000000012C024C023C022C021C020C01FC01EC0F7
:100010001DC01CC01BC01AC019C018C017C016C014
:1000200015C014C013C011241FBECFE5D4E0DEBF3D
:10003000CDBF10E0A0E6B0E0E4E0F9E002C005903A
:100040000D92AE36B107D9F731D25AC4D9CF5D9BE4
:10005000FECF8CB908954F925F926F927F928F92EC
:100060009F92AF92BF92CF92DF92EF92FF920F9347
:100070001F93CF93DF93CDB7DEB72A970FB6F894CF
:10008000DEBF0FBECDBF982E6A017B01122F82E02A
:10009000981220C0AA24A394B12C112309F45DC0A6
:1000A0008FEF810FA50102C0440F551F8A95E2F71B
:1000B000052E000C660B770B4C215D216E217F21F4
:1000C00081E0452B462B472B09F480E0805DBFDFA4
:1000D0001150E3CF452B462B472B11F400E03BC0DA
:1000E000FE0131965F0100E0492C512C612C712CEE
:1000F000101739F1C114D104E104F10471F08C2C12
:10010000C701B601A3019201C3D369017A01929E8E
:1001100080181124F501808204C01B3038F4F501E9
:1001200010820F5FFFEFAF1ABF0AE2CF102F09C096
:10013000FE01E10FF11D80818A3030F0895C87DF9C
:1001400011501111F5CF09C0805DF9CF0A3029F0A7
:1001500080E37DDF0F5F0113F9CF2A960FB6F89485
:10016000DEBF0FBECDBFDF91CF911F910F91FF90EA
:10017000EF90DF90CF90BF90AF909F908F907F9047
:100180006F905F904F90089500C0929A83E08A9597
:10019000F1F70000929820E030E0A90180E0849B14
:1001A00006C02F5F3F4F4F4F5F4F81E0F8CF88234E
:1001B000A9F3AEE5B3E08ED308954F925F926F92AC
:1001C0007F928F929F92AF92BF92CF92DF92EF92E7
:1001D000FF920F931F93CF93DF93CDB7DEB7FE014E
:1001E0007396A190B1908F01F5018081882309F465
:1001F0004CC1853209F030C165018FEFC81AD80AA9
:10020000F501218180ED820F8A3008F0B5C0F12C14
:1002100080ED820F8A3068F4FAE0FF9E200D1124F1
:1002200030EDF32EF20E8FEFC81AD80AF6012081B6
:10023000EFCF283509F4A5C074F4243409F451C073
:100240001CF42234D9F4BDC0233509F4F9C0253596
:1002500009F479C0C7C0263609F4C6C044F4233671
:1002600081F0243619F1223609F0F8C09BC02537F9
:1002700009F454C0283709F475C0E0C023340CF4E5
:10028000FFC05801F2E0AF0EB11CF8018081DFDE43
:1002900022C0293514F1263609F4A6C0DCF5233630
:1002A00081F3243609F079C0FF24FA945801F2E072
:1002B000AF0EB11CF8010081118117FF05C0119527
:1002C000019511098DE2C3DEA801110F660B770BB2
:1002D0002F2D8AE0C0DE8501C1C0243449F5FF24FA
:1002E000FA945801F4E0AF0EB11CF801408051803F
:1002F0006280738077FE0AC070946094509440943A
:10030000411C511C611C711C8DE2A1DE2F2DB3011B
:10031000A201DFCF253709F5FF24FA945801F2E056
:10032000AF0EB11CF8014081518160E070E0D0CF88
:1003300025340CF498C0233509F482C0253509F022
:1003400051C0FF24FA945801F4E0AF0EB11CF8013B
:100350004081518162817381BBCF283709F06EC023
:10036000FF24FA945801F2E0AF0EB11CF80140816D
:10037000518160E070E00EC0283509F08ACFFF247B
:10038000FA945801F4E0AF0EB11CF801408151819C
:10039000628173812F2D80E19DCF223609F05EC0EE
:1003A000FF24FA945801F2E0AF0EB11CF80140812D
:1003B0005181FFEFFF1202C090E1F92E60E070E082
:1003C0000EC0580184E0A80EB11CF8014081518193
:1003D00062817381FFEFFF1202C080E2F82E2F2DA1
:1003E00082E078CF2634D1F5780184E0E80EF11C64
:1003F000F8014080518062807380C301B2012BD12B
:100400004B015C012FEFAB01BC018AE024DE8EE2E0
:100410001EDEC501B4014BD19B01AC01C301B20189
:10042000B5D020E034E244E759E4CFD114D1AB0198
:10043000BC012FEF8AE00FDE870110C0233771F473
:10044000F801A080B1800E5F1F4FF50181915F011F
:10045000882321F0FCDDF9CFFADD65015601FFEFBD
:10046000AF1ABF0AC1CE223409F008CF5801F4E018
:10047000AF0EB11CF8014081518162817381ADCF13
:10048000253261F785E2E3DDE9CFDF91CF911F915E
:100490000F91FF90EF90DF90CF90BF90AF909F9023
:1004A0008F907F906F905F904F9008958FEF87BBF4
:1004B00080E29EE497BD86BD82E88FBD89E18EBD56
:1004C0008A9A849A88E18AB986E880BD1BB88CE054
:1004D00089B910BC2FE986E891E021508040904016
:1004E000E1F700C0000080E2C82E83E0D82E00E6CD
:1004F00010E0C5E6D0E098E6E92E90E0F92EDBBCEE
:10050000CABC8AB59BB5883928E09207E1F08AB564
:100510009BB59F938F931F930F934FDE35DEAB01F7
:10052000BC012FEF8AE097DDDF93CF9346DE8AB5DB
:100530009BB50A969BBD8ABD0F900F900F900F90B0
:100540000F900F90DECF9BBD8ABD8AB59BB58032E0
:100550009340A9F28AB59BB59F938F93FF92EF9238
:100560002CDE12DEAB01BC012FEF8AE074DDDF93DD
:10057000CF9323DE8AB59BB50A979BBD8ABD0F90AA
:100580000F900F900F900F900F90DFCF5058BB2718
:10059000AA270ED0E0C0D1D030F0D6D020F031F470
:1005A0009F3F11F41EF4C6C00EF4E095E7FBBCC0FB
:1005B000E92FE2D080F3BA17620773078407950723
:1005C00018F071F49EF5FAC00EF4E0950B2EBA2FD8
:1005D000A02D0B01B90190010C01CA01A001112449
:1005E000FF27591B99F0593F50F4503E68F11A16F5
:1005F000F040A22F232F342F4427585FF3CF469586
:1006000037952795A795F0405395C9F77EF41F16A7
:10061000BA0B620B730B840BBAF09150A1F0FF0F71
:10062000BB1F661F771F881FC2F70EC0BA0F621F5D
:10063000731F841F48F4879577956795B795F7954D
:100640009E3F08F0B3CF9395880F08F09927EE0FDF
:1006500097958795089598D088F09F5790F0B92F77
:100660009927B751A0F0D1F0660F771F881F991F07
:100670001AF0BA95C9F712C0B13081F09FD0B1E03D
:1006800008959CC0672F782F8827B85F39F0B93F4D
:10069000CCF3869577956795B395D9F73EF4909509
:1006A0008095709561957F4F8F4F9F4F0895E89487
:1006B00009C097FB3EF490958095709561957F4FAA
:1006C0008F4F9F4F9923A9F0F92F96E9BB27939558
:1006D000F695879577956795B795F111F8CFFAF468
:1006E000BB0F11F460FF1BC06F5F7F4F8F4F9F4F99
:1006F00016C0882311F096E911C0772321F09EE8F7
:10070000872F762F05C0662371F096E8862F70E05C
:1007100060E02AF09A95660F771F881FDAF7880F36
:100720009695879597F9089597F99F6780E870E007
:1007300060E008959FEF80EC089500240A94161657
:10074000170618060906089500240A9412161306BF
:10075000140605060895092E0394000C11F488234D
:1007600052F0BB0F40F4BF2B11F460FF04C06F5F69
:100770007F4F8F4F9F4F089557FD9058440F551F3F
:1007800059F05F3F71F04795880F97FB991F61F013
:100790009F3F79F087950895121613061406551F8A
:1007A000F2CF4695F1DF08C0161617061806991FF6
:1007B000F1CF86957105610508940895E894BB27EB
:1007C00066277727CB0197F908950BD0C4CFB5DF03
:1007D00028F0BADF18F0952309F0A6CFABCF11248B
:1007E000EECFCADFA0F3959FD1F3950F50E0551FD0
:1007F000629FF001729FBB27F00DB11D639FAA2776
:10080000F00DB11DAA1F649F6627B00DA11D661FC4
:10081000829F2227B00DA11D621F739FB00DA11DE5
:10082000621F839FA00D611D221F749F3327A00D9F
:10083000611D231F849F600D211D822F762F6A2F3B
:1008400011249F5750408AF0E1F088234AF0EE0FC0
:10085000FF1FBB1F661F771F881F91505040A9F7CD
:100860009E3F510570F060CFAACF5F3FECF3983EFA
:10087000DCF3869577956795B795F795E7959F5F34
:10088000C1F7FE2B880F911D9695879597F90895CE
:10089000A1E21A2EAA1BBB1BFD010DC0AA1FBB1F84
:1008A000EE1FFF1FA217B307E407F50720F0A21BF6
:1008B000B30BE40BF50B661F771F881F991F1A9463
:1008C00069F760957095809590959B01AC01BD018D
:1008D000CF01089509D0A59F900DB49F900DA49FBE
:1008E000800D911D11240895A29FB001B39FC001F6
:1008F000A39F01D0B29F700D811D1124911D0895F9
:04090000F894FFCF99
:0E09040025753B20000A0D0025750D0A000028
:00000001FF
